{
  "_format": "hh-sol-artifact-1",
  "contractName": "StudentSocietyDAO",
  "sourceName": "contracts/StudentSocietyDAO.sol",
  "abi": [
    {
      "inputs": [],
      "stateMutability": "nonpayable",
      "type": "constructor"
    },
    {
      "anonymous": false,
      "inputs": [
        {
          "indexed": false,
          "internalType": "uint256",
          "name": "aw",
          "type": "uint256"
        }
      ],
      "name": "Award",
      "type": "event"
    },
    {
      "anonymous": false,
      "inputs": [
        {
          "indexed": false,
          "internalType": "uint32",
          "name": "proposalIndex",
          "type": "uint32"
        }
      ],
      "name": "ProposalDenied",
      "type": "event"
    },
    {
      "anonymous": false,
      "inputs": [
        {
          "indexed": false,
          "internalType": "uint32",
          "name": "proposalIndex",
          "type": "uint32"
        }
      ],
      "name": "ProposalInitiated",
      "type": "event"
    },
    {
      "anonymous": false,
      "inputs": [
        {
          "indexed": false,
          "internalType": "uint32",
          "name": "proposalIndex",
          "type": "uint32"
        }
      ],
      "name": "ProposalPassed",
      "type": "event"
    },
    {
      "inputs": [],
      "name": "AWARD",
      "outputs": [
        {
          "internalType": "uint256",
          "name": "",
          "type": "uint256"
        }
      ],
      "stateMutability": "view",
      "type": "function"
    },
    {
      "inputs": [],
      "name": "DURATION",
      "outputs": [
        {
          "internalType": "uint256",
          "name": "",
          "type": "uint256"
        }
      ],
      "stateMutability": "view",
      "type": "function"
    },
    {
      "inputs": [],
      "name": "ProposalCost",
      "outputs": [
        {
          "internalType": "uint256",
          "name": "",
          "type": "uint256"
        }
      ],
      "stateMutability": "view",
      "type": "function"
    },
    {
      "inputs": [],
      "name": "VoteCost",
      "outputs": [
        {
          "internalType": "uint256",
          "name": "",
          "type": "uint256"
        }
      ],
      "stateMutability": "view",
      "type": "function"
    },
    {
      "inputs": [],
      "name": "award",
      "outputs": [],
      "stateMutability": "nonpayable",
      "type": "function"
    },
    {
      "inputs": [
        {
          "internalType": "address",
          "name": "",
          "type": "address"
        }
      ],
      "name": "awards",
      "outputs": [
        {
          "internalType": "uint256",
          "name": "",
          "type": "uint256"
        }
      ],
      "stateMutability": "view",
      "type": "function"
    },
    {
      "inputs": [
        {
          "internalType": "address",
          "name": "usr",
          "type": "address"
        }
      ],
      "name": "getAward",
      "outputs": [
        {
          "internalType": "uint256",
          "name": "",
          "type": "uint256"
        }
      ],
      "stateMutability": "view",
      "type": "function"
    },
    {
      "inputs": [
        {
          "internalType": "uint32",
          "name": "i",
          "type": "uint32"
        }
      ],
      "name": "getProposalName",
      "outputs": [
        {
          "internalType": "string",
          "name": "",
          "type": "string"
        }
      ],
      "stateMutability": "view",
      "type": "function"
    },
    {
      "inputs": [],
      "name": "getProposalNumber",
      "outputs": [
        {
          "internalType": "uint32",
          "name": "",
          "type": "uint32"
        }
      ],
      "stateMutability": "view",
      "type": "function"
    },
    {
      "inputs": [
        {
          "internalType": "uint32",
          "name": "i",
          "type": "uint32"
        }
      ],
      "name": "getProposer",
      "outputs": [
        {
          "internalType": "address",
          "name": "",
          "type": "address"
        }
      ],
      "stateMutability": "view",
      "type": "function"
    },
    {
      "inputs": [],
      "name": "helloworld",
      "outputs": [
        {
          "internalType": "string",
          "name": "",
          "type": "string"
        }
      ],
      "stateMutability": "pure",
      "type": "function"
    },
    {
      "inputs": [
        {
          "internalType": "uint32",
          "name": "i",
          "type": "uint32"
        }
      ],
      "name": "isOutOfDue",
      "outputs": [
        {
          "internalType": "bool",
          "name": "",
          "type": "bool"
        }
      ],
      "stateMutability": "view",
      "type": "function"
    },
    {
      "inputs": [
        {
          "internalType": "uint32",
          "name": "i",
          "type": "uint32"
        }
      ],
      "name": "isPassed",
      "outputs": [
        {
          "internalType": "bool",
          "name": "",
          "type": "bool"
        }
      ],
      "stateMutability": "view",
      "type": "function"
    },
    {
      "inputs": [],
      "name": "manager",
      "outputs": [
        {
          "internalType": "address",
          "name": "",
          "type": "address"
        }
      ],
      "stateMutability": "view",
      "type": "function"
    },
    {
      "inputs": [
        {
          "internalType": "string",
          "name": "_name",
          "type": "string"
        }
      ],
      "name": "propose",
      "outputs": [],
      "stateMutability": "nonpayable",
      "type": "function"
    },
    {
      "inputs": [],
      "name": "studentERC20",
      "outputs": [
        {
          "internalType": "contract MyERC20",
          "name": "",
          "type": "address"
        }
      ],
      "stateMutability": "view",
      "type": "function"
    },
    {
      "inputs": [],
      "name": "totalAmount",
      "outputs": [
        {
          "internalType": "uint256",
          "name": "",
          "type": "uint256"
        }
      ],
      "stateMutability": "view",
      "type": "function"
    },
    {
      "inputs": [
        {
          "internalType": "uint32",
          "name": "index",
          "type": "uint32"
        },
        {
          "internalType": "bool",
          "name": "agree",
          "type": "bool"
        }
      ],
      "name": "vote",
      "outputs": [],
      "stateMutability": "nonpayable",
      "type": "function"
    }
  ],
  "bytecode": "0x60806040523480156200001157600080fd5b506040516200002090620000cf565b6200002b906200018e565b604051809103906000f08015801562000048573d6000803e3d6000fd5b506000806101000a81548173ffffffffffffffffffffffffffffffffffffffff021916908373ffffffffffffffffffffffffffffffffffffffff16021790555033600460006101000a81548173ffffffffffffffffffffffffffffffffffffffff021916908373ffffffffffffffffffffffffffffffffffffffff160217905550620001c5565b61198f80620016e483390190565b600082825260208201905092915050565b7f6e616d6500000000000000000000000000000000000000000000000000000000600082015250565b600062000126600483620000dd565b91506200013382620000ee565b602082019050919050565b7f73796d626f6c0000000000000000000000000000000000000000000000000000600082015250565b600062000176600683620000dd565b915062000183826200013e565b602082019050919050565b60006040820190508181036000830152620001a98162000117565b90508181036020830152620001be8162000167565b9050919050565b61150f80620001d56000396000f3fe608060405234801561001057600080fd5b50600436106101165760003560e01c80635260d4b2116100a25780637b0e5f56116100715780637b0e5f56146102d357806385b5dd451461030357806393e1a0de14610321578063aa98df391461033f578063e3ce59551461035b57610116565b80635260d4b21461024b57806353a8b320146102695780636c3fbb2d1461029957806377cfd551146102b757610116565b806334a1ce49116100e957806334a1ce491461019357806336024290146101c35780633b29e418146101f357806341a494c514610223578063481c6a751461022d57610116565b80631a39d8ef1461011b5780631be052891461013957806320289077146101575780632f2f485914610175575b600080fd5b61012361038b565b6040516101309190610ddf565b60405180910390f35b610141610391565b60405161014e9190610ddf565b60405180910390f35b61015f610396565b60405161016c9190610e19565b60405180910390f35b61017d6103b0565b60405161018a9190610ecd565b60405180910390f35b6101ad60048036038101906101a89190610f2f565b6103ed565b6040516101ba9190610f9d565b60405180910390f35b6101dd60048036038101906101d89190610fe4565b610439565b6040516101ea9190610ddf565b60405180910390f35b61020d60048036038101906102089190610f2f565b610482565b60405161021a919061102c565b60405180910390f35b61022b6104ed565b005b6102356106a4565b6040516102429190610f9d565b60405180910390f35b6102536106ca565b6040516102609190610ddf565b60405180910390f35b610283600480360381019061027e9190610f2f565b6106cf565b604051610290919061102c565b60405180910390f35b6102a1610746565b6040516102ae91906110a6565b60405180910390f35b6102d160048036038101906102cc91906110ed565b61076a565b005b6102ed60048036038101906102e89190610fe4565b610924565b6040516102fa9190610ddf565b60405180910390f35b61030b61093c565b6040516103189190610ddf565b60405180910390f35b610329610941565b6040516103369190610ddf565b60405180910390f35b61035960048036038101906103549190611262565b610946565b005b61037560048036038101906103709190610f2f565b610c16565b6040516103829190610ecd565b60405180910390f35b60035481565b607881565b6000600460149054906101000a900463ffffffff16905090565b60606040518060400160405280600b81526020017f68656c6c6f20776f726c64000000000000000000000000000000000000000000815250905090565b6000600160008363ffffffff1663ffffffff16815260200190815260200160002060000160049054906101000a900473ffffffffffffffffffffffffffffffffffffffff169050919050565b6000600260008373ffffffffffffffffffffffffffffffffffffffff1673ffffffffffffffffffffffffffffffffffffffff168152602001908152602001600020549050919050565b600042600160008463ffffffff1663ffffffff16815260200190815260200160002060020154600160008563ffffffff1663ffffffff168152602001908152602001600020600101546104d591906112da565b116104e357600190506104e8565b600090505b919050565b6000600260003373ffffffffffffffffffffffffffffffffffffffff1673ffffffffffffffffffffffffffffffffffffffff168152602001908152602001600020541415610570576040517f08c379a00000000000000000000000000000000000000000000000000000000081526004016105679061137c565b60405180910390fd5b60008054906101000a900473ffffffffffffffffffffffffffffffffffffffff1673ffffffffffffffffffffffffffffffffffffffff1663a9059cbb33600260003373ffffffffffffffffffffffffffffffffffffffff1673ffffffffffffffffffffffffffffffffffffffff168152602001908152602001600020546040518363ffffffff1660e01b815260040161060a92919061139c565b602060405180830381600087803b15801561062457600080fd5b505af1158015610638573d6000803e3d6000fd5b505050506040513d601f19601f8201168201806040525081019061065c91906113da565b506000600260003373ffffffffffffffffffffffffffffffffffffffff1673ffffffffffffffffffffffffffffffffffffffff16815260200190815260200160002081905550565b600460009054906101000a900473ffffffffffffffffffffffffffffffffffffffff1681565b600a81565b60006106da82610482565b6106e75760009050610741565b600160008363ffffffff1663ffffffff16815260200190815260200160002060050154600160008463ffffffff1663ffffffff16815260200190815260200160002060040154111561073c5760019050610741565b600090505b919050565b60008054906101000a900473ffffffffffffffffffffffffffffffffffffffff1681565b61077382610482565b6108ab5760008054906101000a900473ffffffffffffffffffffffffffffffffffffffff1673ffffffffffffffffffffffffffffffffffffffff166323b872dd333060056040518463ffffffff1660e01b81526004016107d593929190611407565b602060405180830381600087803b1580156107ef57600080fd5b505af1158015610803573d6000803e3d6000fd5b505050506040513d601f19601f8201168201806040525081019061082791906113da565b50801561086c5760018060008463ffffffff1663ffffffff168152602001908152602001600020600401600082825461086091906112da565b925050819055506108a6565b60018060008463ffffffff1663ffffffff168152602001908152602001600020600501600082825461089e91906112da565b925050819055505b610920565b6108b4826106cf565b1561091f5760006108c4836103ed565b90506014600260008373ffffffffffffffffffffffffffffffffffffffff1673ffffffffffffffffffffffffffffffffffffffff168152602001908152602001600020600082825461091691906112da565b92505081905550505b5b5050565b60026020528060005260406000206000915090505481565b600581565b601481565b61094e610cca565b60008160a001818152505060008160c0018181525050607881606001818152505042816040018181525050600460149054906101000a900463ffffffff16816000019063ffffffff16908163ffffffff168152505081816080018190525033816020019073ffffffffffffffffffffffffffffffffffffffff16908173ffffffffffffffffffffffffffffffffffffffff16815250508060016000600460149054906101000a900463ffffffff1663ffffffff1663ffffffff16815260200190815260200160002060008201518160000160006101000a81548163ffffffff021916908363ffffffff16021790555060208201518160000160046101000a81548173ffffffffffffffffffffffffffffffffffffffff021916908373ffffffffffffffffffffffffffffffffffffffff16021790555060408201518160010155606082015181600201556080820151816003019080519060200190610ab4929190610d23565b5060a0820151816004015560c082015181600501559050506001600460148282829054906101000a900463ffffffff16610aee919061143e565b92506101000a81548163ffffffff021916908363ffffffff16021790555060008054906101000a900473ffffffffffffffffffffffffffffffffffffffff1673ffffffffffffffffffffffffffffffffffffffff166323b872dd3330600a6040518463ffffffff1660e01b8152600401610b6a93929190611407565b602060405180830381600087803b158015610b8457600080fd5b505af1158015610b98573d6000803e3d6000fd5b505050506040513d601f19601f82011682018060405250810190610bbc91906113da565b50600a60036000828254610bd091906112da565b925050819055507f944f5ef0a446d54c41ea39dac07de1fd2150ec3346cbff6c627d1ffba048676c8160000151604051610c0a9190610e19565b60405180910390a15050565b6060600160008363ffffffff1663ffffffff1681526020019081526020016000206003018054610c45906114a7565b80601f0160208091040260200160405190810160405280929190818152602001828054610c71906114a7565b8015610cbe5780601f10610c9357610100808354040283529160200191610cbe565b820191906000526020600020905b815481529060010190602001808311610ca157829003601f168201915b50505050509050919050565b6040518060e00160405280600063ffffffff168152602001600073ffffffffffffffffffffffffffffffffffffffff16815260200160008152602001600081526020016060815260200160008152602001600081525090565b828054610d2f906114a7565b90600052602060002090601f016020900481019282610d515760008555610d98565b82601f10610d6a57805160ff1916838001178555610d98565b82800160010185558215610d98579182015b82811115610d97578251825591602001919060010190610d7c565b5b509050610da59190610da9565b5090565b5b80821115610dc2576000816000905550600101610daa565b5090565b6000819050919050565b610dd981610dc6565b82525050565b6000602082019050610df46000830184610dd0565b92915050565b600063ffffffff82169050919050565b610e1381610dfa565b82525050565b6000602082019050610e2e6000830184610e0a565b92915050565b600081519050919050565b600082825260208201905092915050565b60005b83811015610e6e578082015181840152602081019050610e53565b83811115610e7d576000848401525b50505050565b6000601f19601f8301169050919050565b6000610e9f82610e34565b610ea98185610e3f565b9350610eb9818560208601610e50565b610ec281610e83565b840191505092915050565b60006020820190508181036000830152610ee78184610e94565b905092915050565b6000604051905090565b600080fd5b600080fd5b610f0c81610dfa565b8114610f1757600080fd5b50565b600081359050610f2981610f03565b92915050565b600060208284031215610f4557610f44610ef9565b5b6000610f5384828501610f1a565b91505092915050565b600073ffffffffffffffffffffffffffffffffffffffff82169050919050565b6000610f8782610f5c565b9050919050565b610f9781610f7c565b82525050565b6000602082019050610fb26000830184610f8e565b92915050565b610fc181610f7c565b8114610fcc57600080fd5b50565b600081359050610fde81610fb8565b92915050565b600060208284031215610ffa57610ff9610ef9565b5b600061100884828501610fcf565b91505092915050565b60008115159050919050565b61102681611011565b82525050565b6000602082019050611041600083018461101d565b92915050565b6000819050919050565b600061106c61106761106284610f5c565b611047565b610f5c565b9050919050565b600061107e82611051565b9050919050565b600061109082611073565b9050919050565b6110a081611085565b82525050565b60006020820190506110bb6000830184611097565b92915050565b6110ca81611011565b81146110d557600080fd5b50565b6000813590506110e7816110c1565b92915050565b6000806040838503121561110457611103610ef9565b5b600061111285828601610f1a565b9250506020611123858286016110d8565b9150509250929050565b600080fd5b600080fd5b7f4e487b7100000000000000000000000000000000000000000000000000000000600052604160045260246000fd5b61116f82610e83565b810181811067ffffffffffffffff8211171561118e5761118d611137565b5b80604052505050565b60006111a1610eef565b90506111ad8282611166565b919050565b600067ffffffffffffffff8211156111cd576111cc611137565b5b6111d682610e83565b9050602081019050919050565b82818337600083830152505050565b6000611205611200846111b2565b611197565b90508281526020810184848401111561122157611220611132565b5b61122c8482856111e3565b509392505050565b600082601f8301126112495761124861112d565b5b81356112598482602086016111f2565b91505092915050565b60006020828403121561127857611277610ef9565b5b600082013567ffffffffffffffff81111561129657611295610efe565b5b6112a284828501611234565b91505092915050565b7f4e487b7100000000000000000000000000000000000000000000000000000000600052601160045260246000fd5b60006112e582610dc6565b91506112f083610dc6565b9250827fffffffffffffffffffffffffffffffffffffffffffffffffffffffffffffffff03821115611325576113246112ab565b5b828201905092915050565b7f4e6f2061776172642e0000000000000000000000000000000000000000000000600082015250565b6000611366600983610e3f565b915061137182611330565b602082019050919050565b6000602082019050818103600083015261139581611359565b9050919050565b60006040820190506113b16000830185610f8e565b6113be6020830184610dd0565b9392505050565b6000815190506113d4816110c1565b92915050565b6000602082840312156113f0576113ef610ef9565b5b60006113fe848285016113c5565b91505092915050565b600060608201905061141c6000830186610f8e565b6114296020830185610f8e565b6114366040830184610dd0565b949350505050565b600061144982610dfa565b915061145483610dfa565b92508263ffffffff0382111561146d5761146c6112ab565b5b828201905092915050565b7f4e487b7100000000000000000000000000000000000000000000000000000000600052602260045260246000fd5b600060028204905060018216806114bf57607f821691505b602082108114156114d3576114d2611478565b5b5091905056fea264697066735822122065bedd1a6ad2b9d6a0bca18633a339813e01f6d67a9618a5f3c81ee92c4538d764736f6c6343000809003360806040523480156200001157600080fd5b506040516200198f3803806200198f8339818101604052810190620000379190620002c2565b818181600390805190602001906200005192919062000075565b5080600490805190602001906200006a92919062000075565b5050505050620003ac565b828054620000839062000376565b90600052602060002090601f016020900481019282620000a75760008555620000f3565b82601f10620000c257805160ff1916838001178555620000f3565b82800160010185558215620000f3579182015b82811115620000f2578251825591602001919060010190620000d5565b5b50905062000102919062000106565b5090565b5b808211156200012157600081600090555060010162000107565b5090565b6000604051905090565b600080fd5b600080fd5b600080fd5b600080fd5b6000601f19601f8301169050919050565b7f4e487b7100000000000000000000000000000000000000000000000000000000600052604160045260246000fd5b6200018e8262000143565b810181811067ffffffffffffffff82111715620001b057620001af62000154565b5b80604052505050565b6000620001c562000125565b9050620001d3828262000183565b919050565b600067ffffffffffffffff821115620001f657620001f562000154565b5b620002018262000143565b9050602081019050919050565b60005b838110156200022e57808201518184015260208101905062000211565b838111156200023e576000848401525b50505050565b60006200025b6200025584620001d8565b620001b9565b9050828152602081018484840111156200027a57620002796200013e565b5b620002878482856200020e565b509392505050565b600082601f830112620002a757620002a662000139565b5b8151620002b984826020860162000244565b91505092915050565b60008060408385031215620002dc57620002db6200012f565b5b600083015167ffffffffffffffff811115620002fd57620002fc62000134565b5b6200030b858286016200028f565b925050602083015167ffffffffffffffff8111156200032f576200032e62000134565b5b6200033d858286016200028f565b9150509250929050565b7f4e487b7100000000000000000000000000000000000000000000000000000000600052602260045260246000fd5b600060028204905060018216806200038f57607f821691505b60208210811415620003a657620003a562000347565b5b50919050565b6115d380620003bc6000396000f3fe608060405234801561001057600080fd5b50600436106100b45760003560e01c80633950935111610071578063395093511461017d57806370a08231146101ad57806395d89b41146101dd578063a457c2d7146101fb578063a9059cbb1461022b578063dd62ed3e1461025b576100b4565b806306fdde03146100b9578063095ea7b3146100d757806318160ddd1461010757806323b872dd14610125578063313ce567146101555780633884d63514610173575b600080fd5b6100c161028b565b6040516100ce9190610d8f565b60405180910390f35b6100f160048036038101906100ec9190610e4a565b61031d565b6040516100fe9190610ea5565b60405180910390f35b61010f610340565b60405161011c9190610ecf565b60405180910390f35b61013f600480360381019061013a9190610eea565b61034a565b60405161014c9190610ea5565b60405180910390f35b61015d610379565b60405161016a9190610f59565b60405180910390f35b61017b610382565b005b61019760048036038101906101929190610e4a565b61047a565b6040516101a49190610ea5565b60405180910390f35b6101c760048036038101906101c29190610f74565b6104b1565b6040516101d49190610ecf565b60405180910390f35b6101e56104f9565b6040516101f29190610d8f565b60405180910390f35b61021560048036038101906102109190610e4a565b61058b565b6040516102229190610ea5565b60405180910390f35b61024560048036038101906102409190610e4a565b610602565b6040516102529190610ea5565b60405180910390f35b61027560048036038101906102709190610fa1565b610625565b6040516102829190610ecf565b60405180910390f35b60606003805461029a90611010565b80601f01602080910402602001604051908101604052809291908181526020018280546102c690611010565b80156103135780601f106102e857610100808354040283529160200191610313565b820191906000526020600020905b8154815290600101906020018083116102f657829003601f168201915b5050505050905090565b6000806103286106ac565b90506103358185856106b4565b600191505092915050565b6000600254905090565b6000806103556106ac565b905061036285828561087f565b61036d85858561090b565b60019150509392505050565b60006012905090565b60001515600560003373ffffffffffffffffffffffffffffffffffffffff1673ffffffffffffffffffffffffffffffffffffffff16815260200190815260200160002060009054906101000a900460ff16151514610415576040517f08c379a000000000000000000000000000000000000000000000000000000000815260040161040c906110b4565b60405180910390fd5b610420336064610b8c565b6001600560003373ffffffffffffffffffffffffffffffffffffffff1673ffffffffffffffffffffffffffffffffffffffff16815260200190815260200160002060006101000a81548160ff021916908315150217905550565b6000806104856106ac565b90506104a68185856104978589610625565b6104a19190611103565b6106b4565b600191505092915050565b60008060008373ffffffffffffffffffffffffffffffffffffffff1673ffffffffffffffffffffffffffffffffffffffff168152602001908152602001600020549050919050565b60606004805461050890611010565b80601f016020809104026020016040519081016040528092919081815260200182805461053490611010565b80156105815780601f1061055657610100808354040283529160200191610581565b820191906000526020600020905b81548152906001019060200180831161056457829003601f168201915b5050505050905090565b6000806105966106ac565b905060006105a48286610625565b9050838110156105e9576040517f08c379a00000000000000000000000000000000000000000000000000000000081526004016105e0906111cb565b60405180910390fd5b6105f682868684036106b4565b60019250505092915050565b60008061060d6106ac565b905061061a81858561090b565b600191505092915050565b6000600160008473ffffffffffffffffffffffffffffffffffffffff1673ffffffffffffffffffffffffffffffffffffffff16815260200190815260200160002060008373ffffffffffffffffffffffffffffffffffffffff1673ffffffffffffffffffffffffffffffffffffffff16815260200190815260200160002054905092915050565b600033905090565b600073ffffffffffffffffffffffffffffffffffffffff168373ffffffffffffffffffffffffffffffffffffffff161415610724576040517f08c379a000000000000000000000000000000000000000000000000000000000815260040161071b9061125d565b60405180910390fd5b600073ffffffffffffffffffffffffffffffffffffffff168273ffffffffffffffffffffffffffffffffffffffff161415610794576040517f08c379a000000000000000000000000000000000000000000000000000000000815260040161078b906112ef565b60405180910390fd5b80600160008573ffffffffffffffffffffffffffffffffffffffff1673ffffffffffffffffffffffffffffffffffffffff16815260200190815260200160002060008473ffffffffffffffffffffffffffffffffffffffff1673ffffffffffffffffffffffffffffffffffffffff168152602001908152602001600020819055508173ffffffffffffffffffffffffffffffffffffffff168373ffffffffffffffffffffffffffffffffffffffff167f8c5be1e5ebec7d5bd14f71427d1e84f3dd0314c0f7b2291e5b200ac8c7c3b925836040516108729190610ecf565b60405180910390a3505050565b600061088b8484610625565b90507fffffffffffffffffffffffffffffffffffffffffffffffffffffffffffffffff811461090557818110156108f7576040517f08c379a00000000000000000000000000000000000000000000000000000000081526004016108ee9061135b565b60405180910390fd5b61090484848484036106b4565b5b50505050565b600073ffffffffffffffffffffffffffffffffffffffff168373ffffffffffffffffffffffffffffffffffffffff16141561097b576040517f08c379a0000000000000000000000000000000000000000000000000000000008152600401610972906113ed565b60405180910390fd5b600073ffffffffffffffffffffffffffffffffffffffff168273ffffffffffffffffffffffffffffffffffffffff1614156109eb576040517f08c379a00000000000000000000000000000000000000000000000000000000081526004016109e29061147f565b60405180910390fd5b6109f6838383610cec565b60008060008573ffffffffffffffffffffffffffffffffffffffff1673ffffffffffffffffffffffffffffffffffffffff16815260200190815260200160002054905081811015610a7c576040517f08c379a0000000000000000000000000000000000000000000000000000000008152600401610a7390611511565b60405180910390fd5b8181036000808673ffffffffffffffffffffffffffffffffffffffff1673ffffffffffffffffffffffffffffffffffffffff16815260200190815260200160002081905550816000808573ffffffffffffffffffffffffffffffffffffffff1673ffffffffffffffffffffffffffffffffffffffff1681526020019081526020016000206000828254610b0f9190611103565b925050819055508273ffffffffffffffffffffffffffffffffffffffff168473ffffffffffffffffffffffffffffffffffffffff167fddf252ad1be2c89b69c2b068fc378daa952ba7f163c4a11628f55a4df523b3ef84604051610b739190610ecf565b60405180910390a3610b86848484610cf1565b50505050565b600073ffffffffffffffffffffffffffffffffffffffff168273ffffffffffffffffffffffffffffffffffffffff161415610bfc576040517f08c379a0000000000000000000000000000000000000000000000000000000008152600401610bf39061157d565b60405180910390fd5b610c0860008383610cec565b8060026000828254610c1a9190611103565b92505081905550806000808473ffffffffffffffffffffffffffffffffffffffff1673ffffffffffffffffffffffffffffffffffffffff1681526020019081526020016000206000828254610c6f9190611103565b925050819055508173ffffffffffffffffffffffffffffffffffffffff16600073ffffffffffffffffffffffffffffffffffffffff167fddf252ad1be2c89b69c2b068fc378daa952ba7f163c4a11628f55a4df523b3ef83604051610cd49190610ecf565b60405180910390a3610ce860008383610cf1565b5050565b505050565b505050565b600081519050919050565b600082825260208201905092915050565b60005b83811015610d30578082015181840152602081019050610d15565b83811115610d3f576000848401525b50505050565b6000601f19601f8301169050919050565b6000610d6182610cf6565b610d6b8185610d01565b9350610d7b818560208601610d12565b610d8481610d45565b840191505092915050565b60006020820190508181036000830152610da98184610d56565b905092915050565b600080fd5b600073ffffffffffffffffffffffffffffffffffffffff82169050919050565b6000610de182610db6565b9050919050565b610df181610dd6565b8114610dfc57600080fd5b50565b600081359050610e0e81610de8565b92915050565b6000819050919050565b610e2781610e14565b8114610e3257600080fd5b50565b600081359050610e4481610e1e565b92915050565b60008060408385031215610e6157610e60610db1565b5b6000610e6f85828601610dff565b9250506020610e8085828601610e35565b9150509250929050565b60008115159050919050565b610e9f81610e8a565b82525050565b6000602082019050610eba6000830184610e96565b92915050565b610ec981610e14565b82525050565b6000602082019050610ee46000830184610ec0565b92915050565b600080600060608486031215610f0357610f02610db1565b5b6000610f1186828701610dff565b9350506020610f2286828701610dff565b9250506040610f3386828701610e35565b9150509250925092565b600060ff82169050919050565b610f5381610f3d565b82525050565b6000602082019050610f6e6000830184610f4a565b92915050565b600060208284031215610f8a57610f89610db1565b5b6000610f9884828501610dff565b91505092915050565b60008060408385031215610fb857610fb7610db1565b5b6000610fc685828601610dff565b9250506020610fd785828601610dff565b9150509250929050565b7f4e487b7100000000000000000000000000000000000000000000000000000000600052602260045260246000fd5b6000600282049050600182168061102857607f821691505b6020821081141561103c5761103b610fe1565b5b50919050565b7f5468697320757365722068617320636c61696d65642061697264726f7020616c60008201527f7265616479000000000000000000000000000000000000000000000000000000602082015250565b600061109e602583610d01565b91506110a982611042565b604082019050919050565b600060208201905081810360008301526110cd81611091565b9050919050565b7f4e487b7100000000000000000000000000000000000000000000000000000000600052601160045260246000fd5b600061110e82610e14565b915061111983610e14565b9250827fffffffffffffffffffffffffffffffffffffffffffffffffffffffffffffffff0382111561114e5761114d6110d4565b5b828201905092915050565b7f45524332303a2064656372656173656420616c6c6f77616e63652062656c6f7760008201527f207a65726f000000000000000000000000000000000000000000000000000000602082015250565b60006111b5602583610d01565b91506111c082611159565b604082019050919050565b600060208201905081810360008301526111e4816111a8565b9050919050565b7f45524332303a20617070726f76652066726f6d20746865207a65726f2061646460008201527f7265737300000000000000000000000000000000000000000000000000000000602082015250565b6000611247602483610d01565b9150611252826111eb565b604082019050919050565b600060208201905081810360008301526112768161123a565b9050919050565b7f45524332303a20617070726f766520746f20746865207a65726f20616464726560008201527f7373000000000000000000000000000000000000000000000000000000000000602082015250565b60006112d9602283610d01565b91506112e48261127d565b604082019050919050565b60006020820190508181036000830152611308816112cc565b9050919050565b7f45524332303a20696e73756666696369656e7420616c6c6f77616e6365000000600082015250565b6000611345601d83610d01565b91506113508261130f565b602082019050919050565b6000602082019050818103600083015261137481611338565b9050919050565b7f45524332303a207472616e736665722066726f6d20746865207a65726f20616460008201527f6472657373000000000000000000000000000000000000000000000000000000602082015250565b60006113d7602583610d01565b91506113e28261137b565b604082019050919050565b60006020820190508181036000830152611406816113ca565b9050919050565b7f45524332303a207472616e7366657220746f20746865207a65726f206164647260008201527f6573730000000000000000000000000000000000000000000000000000000000602082015250565b6000611469602383610d01565b91506114748261140d565b604082019050919050565b600060208201905081810360008301526114988161145c565b9050919050565b7f45524332303a207472616e7366657220616d6f756e742065786365656473206260008201527f616c616e63650000000000000000000000000000000000000000000000000000602082015250565b60006114fb602683610d01565b91506115068261149f565b604082019050919050565b6000602082019050818103600083015261152a816114ee565b9050919050565b7f45524332303a206d696e7420746f20746865207a65726f206164647265737300600082015250565b6000611567601f83610d01565b915061157282611531565b602082019050919050565b600060208201905081810360008301526115968161155a565b905091905056fea26469706673582212201ff980e961a44af0362c31f574fbb1ef0b72934f752cf7f921208ae90096417664736f6c63430008090033",
  "linkReferences": {},
  "deployedLinkReferences": {}
}